:1000030012007DE4F508E4F5091200A70509E509E6
:10001300C3941940F40508E508C3946440E812004A
:100023007DE4F508E4F5091200A70509E509C39481
:100033001940F40508E508C3946440E812007DE420
:10004300F508E4F5091200A70509E509C394194069
:10005300F40508E508C3946440E812007DE4F5085C
:10006300E4F5091200A70509E509C3941940F4054D
:0A00730008E508C3946440E880FE2D
:10007D00E4F50BB2B7E4F50C1200A7050CE50CC3C3
:0D008D00941440F4050BE50BC3942840E6E5
:01009A002243
:0500A700007F14DFFEE4
:0100AC002231
:0300000002009B60
:0C009B00787FE4F6D8FD75810C020003AC
:00000001FF
