:030000000201B04A
:0C01B000787FE4F6D8FD75810902001587
:10001E000000F88BF8F2F95BF9B7FA14FA66FAB940
:10002E00FB03FB4AFB8FFBCFFC0BFC43FC78FCABCA
:10003E00FCDBFD08FD33FD5BFD81FDA5FDC7FDE786
:10004E00FE05FE21FE3CFE55FE6DFE84FE99FEADC4
:10005E00FEC0FE02FEE3FEF3FF02FF10FF1DFF2AAD
:10006E00FF36FF42FF4CFF56FF60FF69FF71FF79BD
:10007E00FF8100041108110811080D08110412085F
:10008E00110C120411040F040F0C16080F040F0CA0
:10009E000008000800081408140814080F081404B7
:1000AE00160414041408140416041404120412087A
:1000BE00120414041208110C00080008000811089C
:1000CE00110811080D081104120811081104120468
:1000DE0011040F040F080F0416080F040F0C00086C
:1000EE00000800081408140814080F081404160455
:1000FE00140414081404160418041904190C180412
:08010E00180819140004FFFF9A
:10000300EFD39400400B7EB57DB5DDFEDEFA1F8095
:01001300EFFD
:0100140022C9
:0801BC007F967E96DEFEDFFA5D
:0101C4002218
:03001B0002017B64
:10017B00C0E0C083C082C0D0B2B7E50825E0241E22
:10018B00F582E43400F583E493F58DE50825E0244E
:10019B001FF582E43400F583E493F58BD0D0D08245
:0501AB00D083D0E0321A
:10011600E4FC53890F438910D2AFD2AB25E024808B
:10012600F582E43400F583E493F508EC25E02481B8
:10013600F582E43400F583E493C313F509E508700A
:1001460004C28E802AE508B4FF06C28E7F1E802177
:10015600EC25E02482F582E43400F583E493B508C7
:100166000CD28EAF09120003C28E0201BCD28EAF32
:040176000912000367
:01017A002262
:0500150012011680FE3F
:00000001FF
