:0300000002000EED
:0C000E00787FE4F6D8FD758153020055A0
:1001D400EF1FAC0670011E4C600A7D027CEFDCFE52
:0401E400DDFC80ECD2
:0101E80022F4
:10009A0000020A010A01110211020A040004000402
:1000AA0000020A010A030002000400020A010A010E
:1000BA00110211020A040004000400020A030002E9
:1000CA0000020A010A010A020A010A0111021102C6
:1000DA000A040004000400020A010A0300020004E0
:1000EA0000020A010A01110211020A0400040004B2
:0700FA0000020A010A01FFE8
:10010100204A0A0000F88CF8F3F95BF9B8FA15FAFD
:1001110067FAB9FB04FB4BFB90FBCFFC0CFC44FCE6
:1001210079FCACFCDCFD09FD34FD5CFD82FDA6FD26
:10013100C8FDE8FE06FE22FE3DFE56FE6EFE85FE71
:0D0141009AFEA7FEC1FED3FEE4FEF4FF030C
:10014F001201BDE50890009A93FFF460208F090516
:10015F0008E5089375F07DA4FFAEF01201D40508F1
:10016F00C28C7F057E001201D4D28C80D6C28C7FC8
:0A017F00327E001201D4D28C80C938
:03000B0002018966
:10018900C0E0C0D075D000C000C006E50925E02454
:100199000AF8E6FE08E64E6012E50925E0240AF8A9
:1001A900E6FE08E6F58AEEF58CB2A5D006D000D0B9
:0401B900D0D0E03290
:1001BD005389F0438901758A18758CFCC28DD28CD8
:0701CD00D2A9D2AFC2B92292
:10001A0002014FE493A3F8E493A34003F68001F2AC
:10002A0008DFF48029E493A3F85407240CC8C333E7
:10003A00C4540F4420C8834004F456800146F6DFB6
:10004A00E4800B0102040810204080900101E47E44
:10005A00019360BCA3FF543F30E509541FFEE493AB
:10006A00A360010ECF54C025E060A840B8E493A372
:10007A00FAE493A3F8E493A3C8C582C8CAC583CA9D
:10008A00F0A3C8C582C8CAC583CADFE9DEE780BE55
:01014E0000B0
:00000001FF
