:03000000020003F8
:0C000300787FE4F6D8FD75810C02004AFD
:1000EF003F065B4F666D7D077F6FBF86DBCFE6ED0B
:0600FF00FD87FFEF008009
:04010B0002080014D2
:10008F00E4F580EF14FFF87401088002C333D8FC45
:10009F00F4F5A074EF2DF58274003CF583E493F52D
:0200AF008022AD
:1000B100E4F50AE50A04FFE50AFD7C0012008FAFB2
:1000C10009AE081200D2050AE50AC3940540E4808E
:0100D100DF4F
:1000D2008E0B8F0CD3E50C9400E50B9400400D12AF
:0D00E2000105E50C150C70EC150B80E822F3
:05010500007F14DFFE85
:01010A0022D2
:10000F000200B1E493A3F8E493A34003F68001F256
:10001F0008DFF48029E493A3F85407240CC8C333F2
:10002F00C4540F4420C8834004F456800146F6DFC1
:10003F00E4800B010204081020408090010BE47E45
:10004F00019360BCA3FF543F30E509541FFEE493B6
:10005F00A360010ECF54C025E060A840B8E493A37D
:10006F00FAE493A3F8E493A3C8C582C8CAC583CAA8
:10007F00F0A3C8C582C8CAC583CADFE9DEE780BE60
:01010F0000EF
:00000001FF
