:03000000020003F8
:0C000300787FE4F6D8FD75810E02004AFB
:10019F0081838587898B8DC180828486888A8CC074
:1001AF003F065B4F666D7D077F6FBF86DBCFE6ED4A
:0601BF00FD87FFEF008048
:09022B0007080000202001052352
:10014200C2B500C2B600D2B500E4FEEF1392B4EF1E
:10015200C313FFD2B600C2B6000EBE08EEE4FEED37
:100162001392B4EDC313FDD2B600C2B6000EBE08A0
:04017200EEC2B50024
:010176002266
:1000F800C2B500C2B600D2B500E4FDEF1392B4EF6A
:10010800C313FFD2B600C2B6000DBD08EE00E4FD71
:10011800A2B4E433FFC43333335480FCEEC3134C2E
:10012800FED2B600C2B6000DBD08E5C2B500D2B613
:0901380000C2B400D2B400AF060D
:01014100229B
:10020400E4FBEB90019F93FF1200F874082BF8A60F
:05021400070BBB07ED24
:0102190022C2
:1001C500E4FD7F8E120142E4FCEC9001A793FF74DD
:1001D500082CF8E6FD1201420CBC07ED7D807F8EF0
:0301E500020142D2
:1001E8001201C5E4FD7F8E1201429001AEE493FF37
:0C01F8007D3A1201427D807F8E020142A0
:03017700540FFD25
:10017A00E4F58075A0FF74AF2DF58274013CF58318
:10018A00E493F580EF14FFF87401088002C333D8B2
:05019A00FCF4F5A022B9
:07021A00C4540FFD12017A2C
:09022100007F027EC7DEFEDFFC57
:01022A0022B1
:10008F001201E8120204E50AC4540FFD7C007F013F
:10009F0012017A120221E50A7F0212017712022160
:1000AF00E5097F0312021AE5097F04120177120294
:1000BF0021E5087F0512021AE508540FFD7F06128D
:1000CF00017A120221E50DC4540FFD7F0712017A48
:1000DF00120221E50D540FFD7F0812017A12022141
:0900EF00E4FD7F0912017A809AF8
:10000F0002008FE493A3F8E493A34003F68001F278
:10001F0008DFF48029E493A3F85407240CC8C333F2
:10002F00C4540F4420C8834004F456800146F6DFC1
:10003F00E4800B010204081020408090022BE47E24
:10004F00019360BCA3FF543F30E509541FFEE493B6
:10005F00A360010ECF54C025E060A840B8E493A37D
:10006F00FAE493A3F8E493A3C8C582C8CAC583CAA8
:10007F00F0A3C8C582C8CAC583CADFE9DEE780BE60
:0102340000C9
:00000001FF
