:03000000020D4BA3
:0C0D4B00787FE4F6D8FD758124020D923B
:0E11A2001200031211B01209A212103580F5CE
:1010E1003F065B4F666D7D077F6FBF86DBCFE6ED09
:1010F100FD87FFEF008081838587898B8DC1808289
:061101008486888A8CC080
:1010B900070A00002020010523010928010800C1B1
:1010C90080C101C1020711000000000000000718DB
:0710D9000000000000000010
:061091007D147C00AF217C
:10109700E4F580EF14FFF87401088002C333D8FC2D
:1010A700F4F5A074E12DF58274103CF583E493F513
:0210B700802295
:10100000C2B600C2B400D2B600E4FEEF1392B5EF50
:10101000C313FFD2B400C2B4000EBE08EEE4FEED6E
:101020001392B5EDC313FDD2B400C2B4000EBE08D6
:04103000EEC2B60056
:011034002299
:100F3300C2B600C2B400D2B600E4FDEF1392B5EF1F
:100F4300C313FFD2B400C2B4000DBD08EE00E4FD2C
:100F5300A2B5E433FFC43333335480FCEEC3134CE4
:100F6300FED2B400C2B4000DBD08E5C2B600D2B4CF
:090F730000C2B500D2B500AF06C2
:010F7C002252
:10116300E4FBEB9010F793FF120F33740A2BF8A6EE
:05117300070BBB07EDB6
:011178002254
:10110700E4FD7F8E121000E4FCEC9010FF93FF7457
:101117000A2CF8E6FD1210000CBC07ED7D807F8ECF
:03112700021000B3
:101066009010FEE493FF120F33EF643A601C1211E6
:1010760007E4FD7F8E121000901106E493FF7D3A7F
:0B1086001210007D807F8E12100022EF
:0600030012106602118FCD
:0511BE00007F14DFFEBC
:0111C3002209
:100E5100E50EC4540FFD7C007F05121097AF0912F7
:100E61000E8EE50E540FFD7F06121097AF09120E7C
:100E71008EE50DC4540FFD7F07121097AF09120EB6
:0D0E81008EE50D7F08540FFD121097AF098C
:0F0E8E00AE07EED3940040061211BE1E80F42270
:0E11B0001211637B007A00790AD204020DDB73
:040DD7007B00C204D7
:100DDB00900002120F96C4540FFD7C007F01120E7F
:100DEB0089300416120F7D30E010900002120F961E
:100DFB00540F240AFDE433FC800B900002120F9673
:100E0B00540FFD7C007F02121097AF09120E8E90CB
:100E1B000001120F96C4540FFD7C007F03120E8944
:100E2B00900001120F967F04120E86E50EC4540F2C
:100E3B00FD120E59E4FD7F09121097E509B4010567
:060E4B007FF4120E8E225E
:1009A2002090641211B020905EE4F5211211B0057E
:1009B20021E521C3940A40F4309003020A06E4F5CB
:1009C200211211B00521E521C3941E40F42090317B
:1009D200209029D28C3000097A007911120DD7802B
:1009E200EF7521011210910521E521C3940540F410
:1009F200120E51E4FD7F0912109780D4120B288049
:100A020006309003120E9D2091641211B020915E67
:100A1200E4F5211211B00521E521C3940A40F43016
:100A22009103020A6DE4F5211211B00521E521C3FB
:100A3200941E40F4209131209129D28C3000097A01
:100A4200007918120DD780EF75210112109105213E
:100A5200E521C3940540F4120E51E4FD7F09121002
:100A62009780D41207F68006309103120EE8209286
:100A72005D1211B0209251E4F5211211B00521E569
:100A820021C3940A40F43092028040E4F52112110D
:100A9200B00521E521C3943240F420923120922303
:100AA200D28C30000D7B007A00790AC204120DDB71
:100AB20080EB752101E521C3940A50E112109105E2
:100AC2002180F212000E8006309203121149209703
:100AD2003D1211B0209731E4F5211211B00521E544
:100AE20021C3940A40F43097028020E4F5211211C8
:100AF200B00521E521C3943240F4209711121179F7
:100B020020970B1211B080F8309703120FC3C28CDA
:100B1200758ACD758CD4E4F5211211B00521E52139
:050B2200C3940A40F439
:010B270022AB
:100E9D00B201A20192B2E509B4281AE4F5227B0051
:100EAD007A007911C203E4FF1206080522E522C378
:100EBD00947F40EA22E4F522E4F5237B007A007961
:100ECD0011C203E4FF1206080523E523C39408406D
:0A0EDD00EA0522E522C394FF40DE7F
:010EE70022E8
:100EE800B202A20292B3E509B4281AE4F5227B0003
:100EF8007A007918C203E4FF1206080522E522C326
:100F0800947F40EA22E4F522E4F5237B007A007915
:100F180018C203E4FF1206080523E523C39408401A
:0A0F2800EA0522E522C394FF40DE33
:010F3200229C
:10117900E509D3940A400475090122E509C3940AD3
:0611890050037509282245
:100FC3007B09EBFD7C007F04121097E4FDE4FEB285
:100FD300B7E4FC1211BE0CBC32F90EBE32F1E4FED2
:100FE3001211BE0EBE64F90DBD02E2E4FDE4FE1271
:0C0FF30011BE0EBE32F90DBDC8F3DBC606
:010FFF0022CF
:0A05FE007B007A007911C203AF23DD
:100608008F2430030302070FE524B40107300004E8
:100618007D14800A900002120F96C4540FFD7C00CE
:100628007F01121097AF09120E8EE524B40209302B
:1006380000067D157C00800E900002120F96540F64
:10064800240AFDE433FC7F02121097AF09120E8EC4
:10065800E524B403073000047D14800A90000112D9
:100668000F96C4540FFD7C007F03121097AF091238
:100678000E8EE524B404073000047D148009900030
:1006880001120F96540FFD7C007F04121097AF09DA
:10069800120E8EE524B405073000047D148006E5AB
:1006A8000EC4540FFD7C007F05121097AF09120E7F
:1006B8008EE524B406073000047D148005E50E5449
:1006C8000FFD7C007F06121097AF09120E8EE524ED
:1006D800B407073000047D148006E50DC4540FFDEF
:1006E8007C007F07121097AF09120E8EE524B4081C
:1006F800073000047D148005E50D540FFD7C007F54
:10070800081210970207F0E524B401073000047DB1
:100718001480027D027C007F01121097AF09120E2F
:100728008EE524B402093000067D147C008003E4C1
:10073800FDFC7F02121097AF09120E8EE524B40358
:10074800073000047D148006E510C4540FFD7C00BA
:100758007F03121097AF09120E8EE524B4040730F8
:1007680000047D148005E510540FFD7C007F041201
:100778001097AF09120E8EE524B405073000047DEA
:10078800148006E50EC4540FFD7C007F05121097F7
:10079800AF09120E8EE524B406073000047D1480DC
:1007A80005E50E540FFD7C007F06121097AF091265
:1007B8000E8EE524B407073000047D148006E50D8D
:1007C800C4540FFD7C007F07121097AF09120E8EDC
:1007D800E524B408073000047D148005E50D540FA6
:0E07E800FD7C007F08121097AF09120E8E22C2
:100B2800752301E523C394054003020C891205FED1
:100B3800209026E4F5221205FE0522E522C3940A38
:100B480040F42090142090051205FE80F8E513D398
:100B5800942340037513200523309303020BFCE410
:100B6800F5221205FE0522E522C3940540F43093D0
:100B780003020BFC2093051205FE80F8E52324FEF2
:100B8800602114604114605524037068E513C4544F
:100B98000FC39402500874102513F513805653138D
:100BA8000F8051E513540FC3940950040513800AAC
:100BB800E513C4540FC454F0F513E513D39423403C
:100BC80033751320802EE512C4540FC394055008C2
:100BD80074102512F512801C53120F8017E5125459
:100BE8000FC3940950040512800AE512C4540FC4B7
:100BF80054F0F512309403020B2BE4F5221205FE93
:100C08000522E522C3940540F4309403020B2B20FF
:100C180094051205FE80F8E52324FE602114603E49
:100C280014604A24036003020B2BE513C4540F70AD
:100C3800047420800274F02513F513020B2BE513BE
:100C4800540F700874092513F51380021513E51362
:100C5800D394235003020B2B751323020B2BE5129D
:100C6800C4540F70047450800C74F08008E512545A
:100C78000F700974092512F512020B2B1512020BBD
:050C88002BD2B2D201E5
:010C8D002244
:1007F600752301E523C39405400302099D7B007A16
:10080600007918C203AF2312060820913AE4F522B4
:100816007B007A007918C203AF231206080522E589
:1008260022C3940A40EA20911E20910F7B007A0091
:100836007918C203AF2312060880EEE51AD3942373
:100846004003751A2005233093030208FCE4F522C1
:100856007B007A007918C203AF231206080522E549
:1008660022C3940540EA3093030208FC20930F7BD1
:10087600007A007918C203AF2312060880EEE5233A
:1008860024FE602114604114605524037068E51A43
:10089600C4540FC3940250087410251AF51A8056D2
:1008A600531A0F8051E51A540FC394095004051AC0
:1008B600800AE51AC4540FC454F0F51AE51AD39405
:1008C600234033751A20802EE519C4540FC39405AE
:1008D600500874102519F519801C53190F8017E557
:1008E60019540FC3940950040519800AE519C45414
:1008F6000FC454F0F5193094030207F9E4F5227B8E
:10090600007A007918C203AF231206080522E522F1
:10091600C3940540EA3094030207F920940F7B0044
:100926007A007918C203AF2312060880EEE5232465
:10093600FE602114603E14604A240360030207F936
:10094600E51AC4540F70047420800274F0251AF559
:100956001A0207F9E51A540F70087409251AF51AD0
:100966008002151AE51AD3942350030207F9751A63
:10097600230207F9E519C4540F70047450800C74EF
:10098600F08008E519540F700974092519F5190244
:0B09960007F915190207F9D2B3D202CD
:0109A1002233
:10114900E4F5227B007A00790AD203E4FF1206084B
:091159000522E522C394FF40EADF
:01116200226A
:10118F005389F0438901758ACD758CD4C28DD2A94C
:03119F00D2AF22AA
:03000B0002112AB5
:10112A00C0E0C0D0758ACD758CD4E508C3941E5032
:0F113A000405088005750800B200D0D0D0E0325F
:10103500A20192B2A20292B3300111E50A700DE548
:1010450012B50B08E513B50C03120C8E300211E531
:101055000A700DE519B50B08E51AB50C03120C8ECF
:011065002268
:100C8E00D203200303020D3BE4F521E4F522B2B7B3
:100C9E00E4FE1211BE30900F30910C309209309359
:100CAE0006309403209702C2033003040EBE0FE2F7
:100CBE0030900F30910C309209309306309403200F
:100CCE009702C2033003090522E522C3943240BEC7
:100CDE00E4F5221211B00522E522C3940440F4304B
:100CEE00900F30910C309209309306309403209778
:100CFE0002C2033003090521E521C39404408CE4AC
:100D0E00F521E521C394144003020C901211B0306A
:100D1E00900F30910C309209309306309403209747
:100D2E0002C203200303020C90052180D5E4F521B5
:0C0D3E001211BE0521E521C3940A40F407
:010D4A002286
:10000E00752301E523C3940B40030205F8E523C3D2
:10001E009409500D7B007A00790AC203AF231206B1
:10002E0008E523D394084010E52324FAFF7B007AD9
:10003E0000790AD203120608309203020179E523F1
:10004E00C394095019E4F5227B007A00790AC203A1
:10005E00AF231206080522E522C3940A40EAE523DF
:10006E00D394084019E4F5227B007A00790AD20372
:10007E00AF231206080522E522C3940A40EA309205
:10008E0003020179209242E523C394095019E4F545
:10009E00227B007A00790AC203AF231206080522DA
:1000AE00E522C3940A40EAE523D3940840D6E4F54A
:1000BE0022E522C3940A50CC7B007A00790AD2033F
:1000CE00AF23120608052280E8E50CD394234003E3
:1000DE00750C20E50ED394124003750E10E50E70CC
:1000EE0003750E01E50D7003750D01E50DD3943109
:1000FE00402CE50E64016023E50E6403601DE50EE1
:10010E0064056017E50E64076011E50E6408600B68
:10011E00E50E64106005E50EB41203750D30E50DA5
:10012E00D39430401AE50E64046011E50E64066047
:10013E000BE50E64096005E50EB41103750D30E58F
:10014E000DD39429400EE50EB40209E51054037048
:10015E0003750D20E50DD39428400EE50EB402096B
:10016E00E51054036003750D20052330930302033D
:10017E00CFE523C394095019E4F5227B007A007968
:10018E000AC203AF231206080522E522C3940A40D1
:10019E00EAE523D394084019E4F5227B007A00792E
:1001AE000AD203AF231206080522E522C3940A40A1
:1001BE00EA3093030203CFE523C394095012209330
:1001CE000F7B007A00790AC203AF2312060880EE75
:1001DE00E523D39408401220930F7B007A00790A0E
:1001EE00D203AF2312060880EEE52314B40A0040B2
:1001FE00030203CF90021075F003A4C58325F0C54A
:10020E00837302022E02024702026E02028702026C
:10021E00A20202BB0202E90203020203A10203B818
:10022E00E50CC4540FC3940250097410250CF50C40
:10023E000203CF530C0F0203CFE50C540FC39409E6
:10024E005004050C800AE50CC4540FC454F0F50C90
:10025E00E50CD3942350030203CF750C200203CF79
:10026E00E50BC4540FC3940550097410250BF50B00
:10027E000203CF530B0F0203CFE50B540FC39409A8
:10028E005005050B0203CFE50BC4540FC454F0F513
:10029E000B0203CFE50EC4540FC394015009741022
:1002AE00250EF50E0203CF530E0F0203CFE50E54AB
:1002BE000FC394095004050E800AE50EC4540FC4F2
:1002CE0054F0F50EE50ED394124003750E10E50EA4
:1002DE0060030203CF750E010203CFE50DC4540F68
:1002EE00C3940350097410250DF50D0203CF530D61
:1002FE000F0203CFE50D540FC394095004050D8072
:10030E000AE50DC4540FC454F0F50DE50D700375D8
:10031E000D01E50DD39431402CE50E64016023E50B
:10032E000E6403601DE50E64056017E50E6407603C
:10033E0011E50E6408600BE50E64106005E50EB461
:10034E001203750D30E50DD39430401AE50E64049A
:10035E006011E50E6406600BE50E64096005E50E9E
:10036E00B41103750D30E50DD39429400EE50EB48E
:10037E000209E51054037003750D20E50DD3942882
:10038E00403FE50E64027039E51054036033750D7D
:10039E0020802EE510C4540FC39409500874102504
:1003AE0010F510801C53100F8017E510540FC394D6
:1003BE000950040510800AE510C4540FC454F0F51A
:1003CE0010309403020011E523C394095019E4F58B
:1003DE00227B007A00790AC203AF23120608052297
:1003EE00E522C3940A40EAE523D394084019E4F5C4
:1003FE00227B007A00790AD203AF23120608052267
:10040E00E522C3940A40EA309403020011E523C3A7
:10041E009409501220930F7B007A00790AC203AF21
:10042E002312060880EEE523D39408401220930F82
:10043E007B007A00790AD203AF2312060880EEE51C
:10044E002314B40A00400302001190046675F003F1
:10045E00A4C58325F0C583730204840204980204A4
:10046E00B80204C70204DB0204EF020516020533CC
:10047E000205D50205E4E50CC4540F700474208007
:10048E000274F0250CF50C020011E50C540F7008E7
:10049E007409250CF50C8002150CE50CD394235031
:1004AE0003020011750C23020011E50BC4540F70EA
:1004BE00047450800C74F08008E50B540F700974AE
:1004CE0009250BF50B020011150B020011E50EC4E8
:1004DE00540F70047410800274F0250EF50E020095
:1004EE0011E50E540F70087409250EF50E800215D5
:1004FE000EE50ED394124003750E10E50E60030246
:10050E000011750E09020011E50DC4540F700DE5B2
:10051E000EB40204742080067430800274F0250D2F
:10052E00F50D020011E50D540F70087409250DF537
:10053E000D8002150DE50D7003750D09E50DD394B3
:10054E0031402CE50E64016023E50E6403601DE569
:10055E000E64056017E50E64076011E50E64086011
:10056E000BE50E64106005E50EB41203750D31E552
:10057E000DD39430401AE50E64046011E50E640646
:10058E00600BE50E64096005E50EB41103750D30C0
:10059E00E50DD39429400EE50EB40209E51054037F
:1005AE007003750D29E50DD394285003020011E553
:1005BE000E64026003020011E51054037003020082
:1005CE0011750D28020011E510C4540F700474103B
:1005DE00800C74F08008E510540F70097409251012
:1005EE00F5100200111510020011E4F50A021107B0
:100D57000211A2E493A3F8E493A34003F68001F2FF
:100D670008DFF48029E493A3F85407240CC8C3339D
:100D7700C4540F4420C8834004F456800146F6DF6C
:100D8700E4800B01020408102040809010B9E47E33
:100D9700019360BCA3FF543F30E509541FFEE49361
:100DA700A360010ECF54C025E060A840B8E493A328
:100DB700FAE493A3F8E493A3C8C582C8CAC583CA53
:100DC700F0A3C8C582C8CAC583CADFE9DEE780BE0B
:0110E000000F
:100F7D00BB010689828A83E0225002E722BBFE0272
:090F8D00E32289828A83E49322A5
:100F9600BB010CE58229F582E5833AF583E0225010
:100FA60006E92582F8E622BBFE06E92582F8E2225A
:0D0FB600E58229F582E5833AF583E4932274
:00000001FF
