:030000000210905B
:0C109000787FE4F6D8FD7581390210D796
:0E154F0012152912155D1209B212139C80F5B7
:100C9E003F065B4F666D7D077F6FBF86DBCFE6ED50
:100CAE00FD87FFEF008081838587898B8DC18082D0
:100CBE008486888A8CC00000F88BF8F2F95BF9B74D
:100CCE00FA14FA66FAB9FB03FB4AFB8FFBCFFC0B57
:100CDE00FC43FC78FCABFCDBFD08FD33FD5BFD81CA
:100CEE00FDA5FDC7FDE7FE05FE21FE3CFE55FE6D92
:100CFE00FE84FE99FEADFEC0FE02FEE3FEF3FF0291
:100D0E00FF10FF1DFF2AFF36FF42FF4CFF56FF600C
:100D1E00FF69FF71FF79FF810004110811081108A6
:100D2E000D0811041208110C120411040F040F0CFB
:100D3E0016080F040F0C0008000800081408140809
:100D4E0014080F08140416041404140814041604CA
:100D5E00140412041208120414041208110C0008D0
:100D6E00000800081108110811080D0811041208D6
:100D7E0011081104120411040F040F080F041608B1
:100D8E000F040F0C000800080008140814081408BB
:100D9E000F0814041604140414081404160418047A
:0C0DAE001904190C180418081914FFFF90
:10144900072300002020010523012228012100C1D2
:1014590080C101C102072A0000070000000007310E
:071469000000070000000075
:061421007D147C00AF0801
:10142700E4F580EF14FFF87401088002C333D8FC99
:10143700F4F5A0749E2DF582740C3CF583E493F5C6
:02144700802201
:10133200C2B600C2B400D2B600E4FEEF1392B5EF1B
:10134200C313FFD2B400C2B4000EBE08EEE4FEED39
:101352001392B5EDC313FDD2B400C2B4000EBE08A1
:04136200EEC2B60021
:011366002264
:1012E800C2B600C2B400D2B600E4FDEF1392B5EF67
:1012F800C313FFD2B400C2B4000DBD08EE00E4FD74
:10130800A2B5E433FFC43333335480FCEEC3134C2B
:10131800FED2B400C2B4000DBD08E5C2B600D2B416
:0913280000C2B500D2B500AF0609
:011331002299
:1014E900E4FBEB900CB493FF1212E874232BF8A6DB
:0514F900070BBB07ED2D
:0114FE0022CB
:10147100E4FD7F8E121332E4FCEC900CBC93FF74FC
:10148100232CF8E6FD1213320CBC07ED7D807F8E14
:0314910002133211
:1013CD00900CBBE493FF1212E8EF643A601C121408
:1013DD0071E4FD7F8E121332900CC3E493FF7D3ABE
:0B13ED001213327D807F8E121332221B
:101529007F007E04EF1F70011EEF4E70F71213CD7E
:0315390002153C5C
:05000300007F14DFFE88
:0100080022D5
:10120600E527C4540FFD7C007F05121427AF221278
:101216001243E527540FFD7F06121427AF22121240
:1012260043E526C4540FFD7F07121427AF2212127E
:0D12360043E5267F08540FFD121427AF2258
:0F124300AE07EED3940040061200031E80F42283
:0E155D001214E97B007A007923D204021120D7
:04111C007B00C2048E
:10112000900002120F81C4540FFD7C007F01121247
:101130003E300416120F6830E010900002120F814A
:10114000540F240AFDE433FC800B900002120F813F
:10115000540FFD7C007F02121427AF22121243901D
:101160000001120F81C4540FFD7C007F0312123E58
:10117000900001120F817F0412123BE527C4540F27
:10118000FD12120EE4FD7F09121427E522B40105B9
:061190007FF4121243225D
:1009B20020906412155D20905EE4F50812155D0525
:1009C20008E508C3940A40F4309003020A16E4F5DD
:1009D2000812155D0508E508C3941E40F420903105
:1009E200209029D28C3000097A00792A12111C80B9
:1009F200EF7508011214210508E508C3940540F4B7
:100A0200121206E4FD7F0912142780D4120B3880DB
:100A12000630900312125220916412155D20915EED
:100A2200E4F50812155D0508E508C3940A40F430A0
:100A32009103020A7DE4F50812155D0508E508C375
:100A4200941E40F4209131209129D28C3000097AF1
:100A520000793112111C80EF75080112142105086A
:100A6200E508C3940540F4121206E4FD7F0912144E
:100A72002780D4120806800630910312129D20921C
:100A82005D12155D209251E4F50812155D0508E529
:100A920008C3940A40F43092028040E4F50812152B
:100AA2005D0508E508C3943240F420923120922378
:100AB200D28C30000D7B007A007923C204121120FF
:100AC20080EB750801E508C3940A50E11214210570
:100AD2000880F212001E80063092031214CF209773
:100AE2003D12155D209731E4F50812155D0508E504
:100AF20008C3940A40F43097028020E4F5081215E6
:100B02005D0508E508C3943240F42097111214FFE2
:100B120020970B12155D80F8309703120DBAC28C24
:100B2200758ACD758CD4E4F50812155D0508E508C3
:050B3200C3940A40F429
:010B3700229B
:10125200B201A20192B2E522B4281AE4F5097B0098
:101262007A00792AC203E4FF1206180509E509C3C8
:10127200947F40EA22E4F509E4F50A7B007A0079DA
:101282002AC203E4FF120618050AE50AC3940840BD
:0A129200EA0509E509C394FF40DEF8
:01129C00222F
:10129D00B202A20292B3E522B4281AE4F5097B004A
:1012AD007A007931C203E4FF1206180509E509C376
:1012BD00947F40EA22E4F509E4F50A7B007A00798F
:1012CD0031C203E4FF120618050AE50AC39408406B
:0A12DD00EA0509E509C394FF40DEAD
:0112E70022E4
:1014FF00E522D3940A400475220122E522C3940AFF
:06150F00500375222822A2
:04100300AF0AAE0979
:04100700AB07AA0683
:10100B00750F057C037DE8120FAEAC06AD077F01B3
:10101B00121427AF0FEFD3940040031F80F77C000F
:10102B007D64AF03AE02120FAE7C007D0A120FAED1
:10103B007F02121427AF0FEFD3940040031F80F7EA
:10104B007C007D0AAF03AE02120FAE7C007D0A124C
:10105B000FAE7F03121427AF0FEFD3940040031F83
:10106B0080F7AE02AF037C007D0A120FAE7F041235
:10107B001427AF0FEFD3940040031F80F7E4FDFC60
:05108B007F090214279B
:100DBA00750900750A0AD3E50A9400E509940050FA
:100DCA0003020EA5E50A940AE5099400501E750B64
:100DDA0000750C32B2B7121003E50C150C7002152F
:100DEA000BD3E50C9400E50B940050E8750B0475E1
:100DFA000C00D3E50C9400E50B94005003020E9707
:100E0A00121003209740750D00750E14121003E599
:100E1A000E150E7002150DD3E50E9400E50D940023
:100E2A0050EA20970512100380F8740A250AF50A79
:100E3A00E43509F509D3E50A940FE5099427400634
:100E4A00750927750A0FA2918290829282938294E1
:100E5A00402D750D00750E14121003E50E150E7057
:100E6A0002150DD3E50E9400E50D940050EAA29107
:100E7A008290829282938294402412100380EFE53A
:100E8A000C150C6003020DFC150B020DFCE50A158E
:0E0E9A000A6003020DC01509020DC012119668
:010EA8002227
:0A060E007B007A00792AC203AF0ACC
:100618008F0B30030302071FE50BB40107300004FA
:100628007D14800A900002120F81C4540FFD7C00D3
:100638007F01121427AF22121243E50BB4020930CE
:1006480000067D157C00800E900002120F81540F69
:10065800240AFDE433FC7F02121427AF221212434E
:10066800E50BB403073000047D14800A90000112E2
:100678000F81C4540FFD7C007F03121427AF221290
:100688001243E50BB404073000047D148009900080
:1006980001120F81540FFD7C007F04121427AF2232
:1006A800121243E50BB405073000047D148006E5FB
:1006B80027C4540FFD7C007F05121427AF221212A5
:1006C80043E50BB406073000047D148005E5275484
:1006D8000FFD7C007F06121427AF22121243E50B90
:1006E800B407073000047D148006E526C4540FFDC6
:1006F8007C007F07121427AF22121243E50BB408BF
:10070800073000047D148005E526540FFD7C007F2A
:1007180008121427020800E50BB401073000047D15
:100728001480027D027C007F01121427AF2212126E
:1007380043E50BB402093000067D147C008003E415
:10074800FDFC7F02121427AF22121243E50BB403FB
:10075800073000047D148006E529C4540FFD7C0091
:100768007F03121427AF22121243E50BB40407309B
:1007780000047D148005E529540FFD7C007F0412D8
:100788001427AF22121243E50BB405073000047D8D
:10079800148006E527C4540FFD7C007F051214273A
:1007A800AF22121243E50BB406073000047D148013
:1007B80005E527540FFD7C007F06121427AF22128F
:1007C8001243E50BB407073000047D148006E526C4
:1007D800C4540FFD7C007F07121427AF2212124366
:1007E800E50BB408073000047D148005E526540F96
:0E07F800FD7C007F08121427AF22121243224C
:100B3800750A01E50AC394054003020C9912060ED2
:100B4800209026E4F50912060E0509E509C3940A62
:100B580040F420901420900512060E80F8E52CD35E
:100B680094234003752C20050A309303020C0CE4EF
:100B7800F50912060E0509E509C3940540F43093FA
:100B880003020C0C20930512060E80F8E50A24FED9
:100B9800602114604114605524037068E52CC45426
:100BA8000FC3940250087410252CF52C8056532C32
:100BB8000F8051E52C540FC394095004052C800A6A
:100BC800E52CC4540FC454F0F52CE52CD3942340E1
:100BD80033752C20802EE52BC4540FC39405500880
:100BE8007410252BF52B801C532B0F8017E52B54E5
:100BF8000FC394095004052B800AE52BC4540FC475
:100C080054F0F52B309403020B3BE4F50912060E61
:100C18000509E509C3940540F4309403020B3B2011
:100C2800940512060E80F8E50A24FE602114603E41
:100C380014604A24036003020B3BE52CC4540F7074
:100C4800047420800274F0252CF52C020B3BE52C53
:100C5800540F70087409252CF52C8002152CE52CEE
:100C6800D394235003020B3B752C23020B3BE52B3B
:100C7800C4540F70047450800C74F08008E52B5431
:100C88000F70097409252BF52B020B3B152B020B52
:050C98003BD2B2D201C5
:010C9D002234
:10080600750A01E50AC3940540030209AD7B007A27
:10081600007931C203AF0A12061820913AE4F509AD
:100826007B007A007931C203AF0A1206180509E582
:1008360009C3940A40EA20911E20910F7B007A009A
:100846007931C203AF0A12061880EEE533D394233A
:100856004003753320050A30930302090CE4F509B9
:100866007B007A007931C203AF0A1206180509E542
:1008760009C3940540EA30930302090C20930F7BC9
:10088600007A007931C203AF0A12061880EEE50A33
:1008960024FE602114604114605524037068E5331A
:1008A600C4540FC39402500874102533F533805690
:1008B60053330F8051E533540FC394095004053365
:1008C600800AE533C4540FC454F0F533E533D394AA
:1008D600234033753320802EE532C4540FC394056C
:1008E600500874102532F532801C53320F8017E5FC
:1008F60032540FC3940950040532800AE532C454B9
:100906000FC454F0F532309403020809E4F5097B6C
:10091600007A007931C203AF0A1206180509E50903
:10092600C3940540EA30940302080920940F7B0023
:100936007A007931C203AF0A12061880EEE50A245E
:10094600FE602114603E14604A2403600302080915
:10095600E533C4540F70047420800274F02533F517
:1009660033020809E533540F700874092533F5334B
:1009760080021533E533D3942350030208097533F7
:1009860023020809E532C4540F70047450800C74B5
:10099600F08008E532540F700974092532F53202E9
:0B09A60008091532020809D2B3D20282
:0109B1002223
:1014CF00E4F5097B007A007923D203E4FF120618B2
:0914DF000509E509C394FF40EA88
:0114E80022E1
:10153C005389F0438901758ACD758CD4C28DD2A99B
:03154C00D2AF22F9
:03000B0002149448
:10149400C0E0C0D0758ACD758CD4E521C3941E50AC
:0F14A4000405218005752100B200D0D0D0E032C0
:03001B0002136766
:10136700C0E0C083C082C0D0B2B7E53825E024C44E
:10137700F582E4340CF583E493F58DE53825E02414
:10138700C5F582E4340CF583E493F58BD0D0D08295
:05139700D083D0E0321C
:10139C00A20192B2A20292B3300111E523700DE5C5
:1013AC002BB52408E52CB52503120EA9300211E546
:1013BC0023700DE532B52408E533B52503120EA9CB
:0113CC0022FE
:100EA900D203200303020F56E4F508E4F509B2B7AB
:100EB900E4FE12000330900F30910C309209309308
:100EC90006309403209702C2033003040EBE0FE2DA
:100ED90030900F30910C30920930930630940320F2
:100EE9009702C2033003090509E509C3943240BEDC
:100EF900E4F50912155D0509E509C3940440F430C8
:100F0900900F30910C30920930930630940320975A
:100F190002C2033003090508E508C39404408CE4C0
:100F2900F508E508C394144003020EAB12155D30B1
:100F3900900F30910C30920930930630940320972A
:100F490002C203200303020EAB050880D5D2B7E421
:0E0F5900F5081200030508E508C3940A40F4E9
:010F67002267
:10001E00750A01E50AC3940B4003020608E50AC3FC
:10002E009409500D7B007A007923C203AF0A1206A1
:10003E0018E50AD394084010E50A24FAFF7B007AEB
:10004E00007923D203120618309203020189E50AC1
:10005E00C394095019E4F5097B007A007923C20391
:10006E00AF0A1206180509E509C3940A40EAE50A23
:10007E00D394084019E4F5097B007A007923D20362
:10008E00AF0A1206180509E509C3940A40EA309230
:10009E0003020189209242E50AC394095019E4F53E
:1000AE00097B007A007923C203AF0A1206180509EC
:1000BE00E509C3940A40EAE50AD3940840D6E4F56C
:1000CE0009E509C3940A50CC7B007A007923D20348
:1000DE00AF0A120618050980E8E525D394234003DC
:1000EE00752520E527D394124003752710E5277058
:1000FE0003752701E5267003752601E526D3943195
:10010E00402CE52764016023E5276403601DE52785
:10011E0064056017E52764076011E5276408600B26
:10012E00E52764106005E527B41203752630E52631
:10013E00D39430401AE52764046011E52764066005
:10014E000BE52764096005E527B41103752630E534
:10015E0026D39429400EE527B40209E529540370ED
:10016E0003752620E526D39428400EE527B4020910
:10017E00E52954036003752620050A309303020314
:10018E00DFE50AC394095019E4F5097B007A00797A
:10019E0023C203AF0A1206180509E509C3940A40E3
:1001AE00EAE50AD394084019E4F5097B007A007950
:1001BE0023D203AF0A1206180509E509C3940A40B3
:1001CE00EA3093030203DFE50AC394095012209329
:1001DE000F7B007A007923C203AF0A12061880EE55
:1001EE00E50AD39408401220930F7B007A007923FE
:1001FE00D203AF0A12061880EEE50A14B40A0040C4
:10020E00030203DF90022075F003A4C58325F0C519
:10021E00837302023E02025702027E02029702021C
:10022E00B20202CB0202F90203120203B10203C8A8
:10023E00E525C4540FC39402500974102525F525E5
:10024E000203DF53250F0203DFE525540FC3940984
:10025E0050040525800AE525C4540FC454F0F52535
:10026E00E525D3942350030203DF7525200203DF17
:10027E00E524C4540FC39405500974102524F524A5
:10028E000203DF53240F0203DFE524540FC3940946
:10029E00500505240203DFE524C4540FC454F0F5C1
:1002AE00240203DFE527C4540FC3940150097410D0
:1002BE002527F5270203DF53270F0203DFE5275417
:1002CE000FC3940950040527800AE527C4540FC4B0
:1002DE0054F0F527E527D394124003752710E52730
:1002EE0060030203DF7527010203DFE526C4540F06
:1002FE00C39403500974102526F5260203DF5326F6
:10030E000F0203DFE526540FC3940950040526801F
:10031E000AE526C4540FC454F0F526E5267003757D
:10032E002601E526D39431402CE52764016023E5B0
:10033E00276403601DE52764056017E527640760E1
:10034E0011E5276408600BE52764106005E527B406
:10035E001203752630E526D39430401AE52764043F
:10036E006011E5276406600BE52764096005E52743
:10037E00B41103752630E526D39429400EE527B433
:10038E000209E52954037003752620E526D3942827
:10039E00403FE52764027039E52954036033752622
:1003AE0020802EE529C4540FC394095008741025DB
:1003BE0029F529801C53290F8017E529540FC39462
:1003CE000950040529800AE529C4540FC454F0F5D8
:1003DE0029309403020021E50AC394095019E4F56B
:1003EE00097B007A007923C203AF0A1206180509A9
:1003FE00E509C3940A40EAE50AD394084019E4F5E6
:10040E00097B007A007923D203AF0A120618050978
:10041E00E509C3940A40EA309403020021E50AC3B9
:10042E009409501220930F7B007A007923C203AFF8
:10043E000A12061880EEE50AD39408401220930F94
:10044E007B007A007923D203AF0A12061880EEE5FC
:10045E000A14B40A00400302002190047675F003DA
:10046E00A4C58325F0C583730204940204A8020474
:10047E00C80204D70204EB0204FF0205260205435C
:10048E000205E50205F4E525C4540F7004742080BE
:10049E000274F02525F525020021E525540F70087C
:1004AE0074092525F52580021525E525D3942350BD
:1004BE0003020021752523020021E524C4540F7088
:1004CE00047450800C74F08008E524540F70097485
:1004DE00092524F5240200211524020021E527C454
:1004EE00540F70047410800274F02527F527020053
:1004FE0021E527540F700874092527F5278002156A
:10050E0027E527D394124003752710E527600302D1
:10051E000021752709020021E526C4540F700DE550
:10052E0027B40204742080067430800274F02526ED
:10053E00F526020021E526540F700874092526F5CC
:10054E002680021526E5267003752609E526D39426
:10055E0031402CE52764016023E5276403601DE527
:10056E002764056017E52764076011E527640860B6
:10057E000BE52764106005E527B41203752631E5F7
:10058E0026D39430401AE52764046011E5276406EB
:10059E00600BE52764096005E527B4110375263065
:1005AE00E526D39429400EE527B40209E529540324
:1005BE007003752629E526D394285003020021E501
:1005CE002764026003020021E52954037003020030
:1005DE0021752628020021E529C4540F70047410D9
:1005EE00800C74F08008E529540F700974092529D0
:1005FE00F5290200211529020021E4F523021471C8
:0213F8008F1054
:1013FA00E510D39400401F75119775121512151533
:10140A001512E512D3940050F41511E511D3940086
:06141A0050E8151080DA15
:0114200022A9
:1014B3007510787511011215151511E511D39400E6
:0B14C30050F41510E510D3940050E821
:0114CE0022FB
:10151500E4F58075A0FE75807CF58075A0F1758079
:041525005CF58022CF
:10119600E4F50F53890F438910D2AFD2ABE50F2583
:1011A600E02426F582E4340DF583E493F538E50F63
:1011B60025E02427F582E4340DF583E493C313F583
:1011C60039E5387004C28E802EE538B4FF05C28E2C
:1011D600D2B722E50F25E02428F582E4340DF58305
:1011E600E493B53810D28EAF391213F8C28E1214AA
:1011F600B3050F80A8D28EAF391213F8050F809D64
:10109C0002154FE493A3F8E493A34003F68001F206
:1010AC0008DFF48029E493A3F85407240CC8C33355
:1010BC00C4540F4420C8834004F456800146F6DF24
:1010CC00E4800B0102040810204080901449E47E57
:1010DC00019360BCA3FF543F30E509541FFEE49319
:1010EC00A360010ECF54C025E060A840B8E493A3E0
:1010FC00FAE493A3F8E493A3C8C582C8CAC583CA0B
:10110C00F0A3C8C582C8CAC583CADFE9DEE780BEC2
:01147000007B
:100F6800BB010689828A83E0225002E722BBFE0287
:090F7800E32289828A83E49322BA
:100F8100BB010CE58229F582E5833AF583E0225025
:100F910006E92582F8E622BBFE06E92582F8E2226F
:0D0FA100E58229F582E5833AF583E4932289
:100FAE00BC000BBE0029EF8DF084FFADF022E4CC27
:100FBE00F875F008EF2FFFEE33FEEC33FCEE9DECF0
:100FCE00984005FCEE9DFE0FD5F0E9E4CEFD22ED36
:100FDE00F8F5F0EE8420D21CFEADF075F008EF2F80
:100FEE00FFED33FD4007985006D5F0F222C398FD71
:050FFE000FD5F0EA220E
:00000001FF
