:030000000200AA51
:0C00AA00787FE4F6D8FD75810B02009C05
:100086003F065B4F666D7D077F6FBF86DBCFE6ED74
:06009600FD87FFEF008072
:10006100E4F58075A0FF74862DF58274003CF5835C
:10007100E493F580EF14FFF87401088002C333D8CC
:05008100FCF4F5A022D3
:0E009C0020B2FD1200B620B2F712000380F26F
:1000030075080AE508FD7C007F04120061E4F50928
:10001300E4F50AB2B7E4F50B1200BF050BE50BC319
:10002300943240F4050AE50AC3943240E6E4F50A43
:100033001200BF050AE50AC3946440F40509E50903
:10004300C3940440CBE4F5091200BF0509E509C3D5
:0D00530094C840F41508E508D3940050A6A9
:01006000227D
:0800B6007F907E6DDEFEDFFC91
:0100BE00221F
:0500BF00007F14DFFECC
:0100C4002219
:00000001FF
